{
  "_format": "hh-sol-artifact-1",
  "contractName": "DappVotes",
  "sourceName": "contracts/DappVotes.sol",
  "abi": [
    {
      "anonymous": false,
      "inputs": [
        {
          "indexed": true,
          "internalType": "address",
          "name": "voter",
          "type": "address"
        },
        {
          "indexed": false,
          "internalType": "uint256",
          "name": "timestamp",
          "type": "uint256"
        }
      ],
      "name": "Voted",
      "type": "event"
    },
    {
      "inputs": [
        {
          "internalType": "uint256",
          "name": "id",
          "type": "uint256"
        },
        {
          "internalType": "string",
          "name": "name",
          "type": "string"
        },
        {
          "internalType": "string",
          "name": "image",
          "type": "string"
        }
      ],
      "name": "contest",
      "outputs": [],
      "stateMutability": "nonpayable",
      "type": "function"
    },
    {
      "inputs": [
        {
          "internalType": "string",
          "name": "image",
          "type": "string"
        },
        {
          "internalType": "string",
          "name": "title",
          "type": "string"
        },
        {
          "internalType": "string",
          "name": "description",
          "type": "string"
        },
        {
          "internalType": "uint256",
          "name": "startsAt",
          "type": "uint256"
        },
        {
          "internalType": "uint256",
          "name": "endsAt",
          "type": "uint256"
        }
      ],
      "name": "createPoll",
      "outputs": [],
      "stateMutability": "nonpayable",
      "type": "function"
    },
    {
      "inputs": [
        {
          "internalType": "uint256",
          "name": "id",
          "type": "uint256"
        }
      ],
      "name": "deletePoll",
      "outputs": [],
      "stateMutability": "nonpayable",
      "type": "function"
    },
    {
      "inputs": [
        {
          "internalType": "uint256",
          "name": "id",
          "type": "uint256"
        }
      ],
      "name": "getContestants",
      "outputs": [
        {
          "components": [
            {
              "internalType": "uint256",
              "name": "id",
              "type": "uint256"
            },
            {
              "internalType": "string",
              "name": "image",
              "type": "string"
            },
            {
              "internalType": "string",
              "name": "name",
              "type": "string"
            },
            {
              "internalType": "address",
              "name": "voter",
              "type": "address"
            },
            {
              "internalType": "uint256",
              "name": "votes",
              "type": "uint256"
            },
            {
              "internalType": "address[]",
              "name": "voters",
              "type": "address[]"
            }
          ],
          "internalType": "struct DappVotes.ContestantStruct[]",
          "name": "",
          "type": "tuple[]"
        }
      ],
      "stateMutability": "view",
      "type": "function"
    },
    {
      "inputs": [
        {
          "internalType": "uint256",
          "name": "id",
          "type": "uint256"
        }
      ],
      "name": "getPoll",
      "outputs": [
        {
          "components": [
            {
              "internalType": "uint256",
              "name": "id",
              "type": "uint256"
            },
            {
              "internalType": "string",
              "name": "image",
              "type": "string"
            },
            {
              "internalType": "string",
              "name": "title",
              "type": "string"
            },
            {
              "internalType": "string",
              "name": "description",
              "type": "string"
            },
            {
              "internalType": "uint256",
              "name": "votes",
              "type": "uint256"
            },
            {
              "internalType": "uint256",
              "name": "contestants",
              "type": "uint256"
            },
            {
              "internalType": "bool",
              "name": "deleted",
              "type": "bool"
            },
            {
              "internalType": "address",
              "name": "director",
              "type": "address"
            },
            {
              "internalType": "uint256",
              "name": "startsAt",
              "type": "uint256"
            },
            {
              "internalType": "uint256",
              "name": "endsAt",
              "type": "uint256"
            },
            {
              "internalType": "uint256",
              "name": "timestamp",
              "type": "uint256"
            },
            {
              "internalType": "address[]",
              "name": "voters",
              "type": "address[]"
            },
            {
              "internalType": "string[]",
              "name": "avatars",
              "type": "string[]"
            }
          ],
          "internalType": "struct DappVotes.PollStruct",
          "name": "",
          "type": "tuple"
        }
      ],
      "stateMutability": "view",
      "type": "function"
    },
    {
      "inputs": [],
      "name": "getPolls",
      "outputs": [
        {
          "components": [
            {
              "internalType": "uint256",
              "name": "id",
              "type": "uint256"
            },
            {
              "internalType": "string",
              "name": "image",
              "type": "string"
            },
            {
              "internalType": "string",
              "name": "title",
              "type": "string"
            },
            {
              "internalType": "string",
              "name": "description",
              "type": "string"
            },
            {
              "internalType": "uint256",
              "name": "votes",
              "type": "uint256"
            },
            {
              "internalType": "uint256",
              "name": "contestants",
              "type": "uint256"
            },
            {
              "internalType": "bool",
              "name": "deleted",
              "type": "bool"
            },
            {
              "internalType": "address",
              "name": "director",
              "type": "address"
            },
            {
              "internalType": "uint256",
              "name": "startsAt",
              "type": "uint256"
            },
            {
              "internalType": "uint256",
              "name": "endsAt",
              "type": "uint256"
            },
            {
              "internalType": "uint256",
              "name": "timestamp",
              "type": "uint256"
            },
            {
              "internalType": "address[]",
              "name": "voters",
              "type": "address[]"
            },
            {
              "internalType": "string[]",
              "name": "avatars",
              "type": "string[]"
            }
          ],
          "internalType": "struct DappVotes.PollStruct[]",
          "name": "",
          "type": "tuple[]"
        }
      ],
      "stateMutability": "view",
      "type": "function"
    },
    {
      "inputs": [
        {
          "internalType": "uint256",
          "name": "id",
          "type": "uint256"
        },
        {
          "internalType": "string",
          "name": "image",
          "type": "string"
        },
        {
          "internalType": "string",
          "name": "title",
          "type": "string"
        },
        {
          "internalType": "string",
          "name": "description",
          "type": "string"
        },
        {
          "internalType": "uint256",
          "name": "startsAt",
          "type": "uint256"
        },
        {
          "internalType": "uint256",
          "name": "endsAt",
          "type": "uint256"
        }
      ],
      "name": "updatePoll",
      "outputs": [],
      "stateMutability": "nonpayable",
      "type": "function"
    },
    {
      "inputs": [
        {
          "internalType": "uint256",
          "name": "id",
          "type": "uint256"
        },
        {
          "internalType": "uint256",
          "name": "cid",
          "type": "uint256"
        }
      ],
      "name": "vote",
      "outputs": [],
      "stateMutability": "nonpayable",
      "type": "function"
    }
  ],
  "bytecode": "0x608060405234801561001057600080fd5b50612236806100206000396000f3fe608060405234801561001057600080fd5b50600436106100885760003560e01c806366dd51dc1161005b57806366dd51dc146100f3578063b384abef14610106578063cee9dc4514610119578063f0d0bc451461013957600080fd5b8063029433f01461008d578063120fe89b146100a25780631a8cbcaa146100c05780631f35b51d146100e0575b600080fd5b6100a061009b366004611ace565b61014c565b005b6100aa610414565b6040516100b79190611d4a565b60405180910390f35b6100d36100ce366004611dac565b610894565b6040516100b79190611dc5565b6100a06100ee366004611dac565b610c16565b6100a0610101366004611ddf565b610cc6565b6100a0610114366004611e4c565b610f72565b61012c610127366004611dac565b61124f565b6040516100b79190611e6e565b6100a0610147366004611f38565b611557565b60008681526002602052604090205460ff166101835760405162461bcd60e51b815260040161017a90611fd2565b60405180910390fd5b60008681526003602052604090206006015461010090046001600160a01b031633146101e75760405162461bcd60e51b8152602060048201526013602482015272556e617574686f72697a656420656e7469747960681b604482015260640161017a565b60008451116102305760405162461bcd60e51b81526020600482015260156024820152745469746c652063616e6e6f7420626520656d70747960581b604482015260640161017a565b60008351116102815760405162461bcd60e51b815260206004820152601b60248201527f4465736372697074696f6e2063616e6e6f7420626520656d7074790000000000604482015260640161017a565b60008551116102ce5760405162461bcd60e51b8152602060048201526019602482015278496d6167652055524c2063616e6e6f7420626520656d70747960381b604482015260640161017a565b60008681526003602052604090206006015460ff16156103305760405162461bcd60e51b815260206004820152601760248201527f506f6c6c696e6720616c72656164792064656c65746564000000000000000000604482015260640161017a565b60008681526003602052604090206004015460011161038a5760405162461bcd60e51b8152602060048201526016602482015275506f6c6c2068617320766f74657320616c726561647960501b604482015260640161017a565b8181116103a95760405162461bcd60e51b815260040161017a90611ffa565b60008681526003602052604090206002016103c485826120cb565b506000868152600360208190526040909120016103e184826120cb565b506000868152600360205260409020600781018390556008810182905560010161040b86826120cb565b50505050505050565b60606000805b60005481101561045d5760008181526003602052604090206006015460ff1661044b5781610447816121a1565b9250505b80610455816121a1565b91505061041a565b5060008167ffffffffffffffff81111561047957610479611a2b565b6040519080825280602002602001820160405280156104b257816020015b61049f611853565b8152602001906001900390816104975790505b5090506000805b60005481101561088b5760008181526003602052604090206006015460ff166108795760036000828152602001908152602001600020604051806101a00160405290816000820154815260200160018201805461051590612042565b80601f016020809104026020016040519081016040528092919081815260200182805461054190612042565b801561058e5780601f106105635761010080835404028352916020019161058e565b820191906000526020600020905b81548152906001019060200180831161057157829003601f168201915b505050505081526020016002820180546105a790612042565b80601f01602080910402602001604051908101604052809291908181526020018280546105d390612042565b80156106205780601f106105f557610100808354040283529160200191610620565b820191906000526020600020905b81548152906001019060200180831161060357829003601f168201915b5050505050815260200160038201805461063990612042565b80601f016020809104026020016040519081016040528092919081815260200182805461066590612042565b80156106b25780601f10610687576101008083540402835291602001916106b2565b820191906000526020600020905b81548152906001019060200180831161069557829003601f168201915b505050918352505060048201546020808301919091526005830154604080840191909152600684015460ff8116151560608501526001600160a01b0361010091829004166080850152600785015460a0850152600885015460c0850152600985015460e0850152600a850180548351818602810186019094528084529190940193919283018282801561076e57602002820191906000526020600020905b81546001600160a01b03168152600190910190602001808311610750575b50505050508152602001600b8201805480602002602001604051908101604052809291908181526020016000905b828210156108485783829060005260206000200180546107bb90612042565b80601f01602080910402602001604051908101604052809291908181526020018280546107e790612042565b80156108345780601f1061080957610100808354040283529160200191610834565b820191906000526020600020905b81548152906001019060200180831161081757829003601f168201915b50505050508152602001906001019061079c565b5050509152508490508361085b816121a1565b94508151811061086d5761086d6121ba565b60200260200101819052505b80610883816121a1565b9150506104b9565b50909392505050565b61089c611853565b60036000838152602001908152602001600020604051806101a0016040529081600082015481526020016001820180546108d590612042565b80601f016020809104026020016040519081016040528092919081815260200182805461090190612042565b801561094e5780601f106109235761010080835404028352916020019161094e565b820191906000526020600020905b81548152906001019060200180831161093157829003601f168201915b5050505050815260200160028201805461096790612042565b80601f016020809104026020016040519081016040528092919081815260200182805461099390612042565b80156109e05780601f106109b5576101008083540402835291602001916109e0565b820191906000526020600020905b8154815290600101906020018083116109c357829003601f168201915b505050505081526020016003820180546109f990612042565b80601f0160208091040260200160405190810160405280929190818152602001828054610a2590612042565b8015610a725780601f10610a4757610100808354040283529160200191610a72565b820191906000526020600020905b815481529060010190602001808311610a5557829003601f168201915b505050918352505060048201546020808301919091526005830154604080840191909152600684015460ff8116151560608501526001600160a01b0361010091829004166080850152600785015460a0850152600885015460c0850152600985015460e0850152600a8501805483518186028101860190945280845291909401939192830182828015610b2e57602002820191906000526020600020905b81546001600160a01b03168152600190910190602001808311610b10575b50505050508152602001600b8201805480602002602001604051908101604052809291908181526020016000905b82821015610c08578382906000526020600020018054610b7b90612042565b80601f0160208091040260200160405190810160405280929190818152602001828054610ba790612042565b8015610bf45780601f10610bc957610100808354040283529160200191610bf4565b820191906000526020600020905b815481529060010190602001808311610bd757829003601f168201915b505050505081526020019060010190610b5c565b505050915250909392505050565b60008181526002602052604090205460ff16610c445760405162461bcd60e51b815260040161017a90611fd2565b60008181526003602052604090206006015461010090046001600160a01b03163314610ca85760405162461bcd60e51b8152602060048201526013602482015272556e617574686f72697a656420656e7469747960681b604482015260640161017a565b6000908152600360205260409020600601805460ff19166001179055565b60008381526002602052604090205460ff16610cf45760405162461bcd60e51b815260040161017a90611fd2565b6000825111610d3c5760405162461bcd60e51b81526020600482015260146024820152734e616d652063616e6e6f7420626520656d70747960601b604482015260640161017a565b6000815111610d855760405162461bcd60e51b8152602060048201526015602482015274496d6167652063616e6e6f7420626520656d70747960581b604482015260640161017a565b600083815260036020526040902060040154600111610ddf5760405162461bcd60e51b8152602060048201526016602482015275506f6c6c2068617320766f74657320616c726561647960501b604482015260640161017a565b600083815260056020908152604080832033845290915290205460ff1615610e3d5760405162461bcd60e51b8152602060048201526011602482015270105b1c9958591e4818dbdb9d195cdd1959607a1b604482015260640161017a565b610e4b600180546001019055565b610e536118c6565b6040818101849052602080830184815233606085015260018054855260008881526006845284812086518252909352929091208351815590518392820190610e9b90826120cb565b5060408201516002820190610eb090826120cb565b5060608201516003820180546001600160a01b0319166001600160a01b039092169190911790556080820151600482015560a08201518051610efc916005840191602090910190611905565b50505060008481526005602090815260408083203384528252808320805460ff1916600190811790915587845260038352908320600b01805491820181558352912001610f4983826120cb565b506000848152600360205260408120600501805491610f67836121a1565b919050555050505050565b60008281526002602052604090205460ff16610fa05760405162461bcd60e51b815260040161017a90611fd2565b600082815260046020908152604080832033845290915290205460ff1615610ffa5760405162461bcd60e51b815260206004820152600d60248201526c105b1c9958591e481d9bdd1959609a1b604482015260640161017a565b60008281526003602052604090206006015460ff16156110545760405162461bcd60e51b8152602060048201526015602482015274506f6c6c696e67206e6f7420617661696c61626c6560581b604482015260640161017a565b6000828152600360205260409020600501546001106110ae5760405162461bcd60e51b81526020600482015260166024820152754e6f7420656e6f75676820636f6e74657374616e747360501b604482015260640161017a565b6000828152600360205260409020600701546110c8611834565b101580156110ed57506000828152600360205260409020600801546110eb611834565b105b6111395760405162461bcd60e51b815260206004820152601960248201527f566f74696e67206d75737420626520696e2073657373696f6e00000000000000604482015260640161017a565b6000828152600360205260408120600401805491611156836121a1565b90915550506000828152600360209081526040808320600a0180546001810182559084528284200180546001600160a01b031916331790558483526006825280832084845290915281206004018054916111af836121a1565b9091555050600082815260066020908152604080832084845282528083206005018054600181810183559185528385200180546001600160a01b03191633908117909155868552600484528285208186529093529220805460ff19169092179091557f4d99b957a2bc29a30ebd96a7be8e68fe50a3c701db28a91436490b7d53870ca461123a611834565b60405190815260200160405180910390a25050565b60606000805b6001548110156112a057600084815260066020908152604080832084845290915290205481900361128e578161128a816121a1565b9250505b80611298816121a1565b915050611255565b5060008167ffffffffffffffff8111156112bc576112bc611a2b565b6040519080825280602002602001820160405280156112f557816020015b6112e26118c6565b8152602001906001900390816112da5790505b5090506000805b60015481101561154d57600086815260066020908152604080832084845290915290205481900361153b576000868152600660209081526040808320848452825291829020825160c0810190935280548352600181018054919284019161136290612042565b80601f016020809104026020016040519081016040528092919081815260200182805461138e90612042565b80156113db5780601f106113b0576101008083540402835291602001916113db565b820191906000526020600020905b8154815290600101906020018083116113be57829003601f168201915b505050505081526020016002820180546113f490612042565b80601f016020809104026020016040519081016040528092919081815260200182805461142090612042565b801561146d5780601f106114425761010080835404028352916020019161146d565b820191906000526020600020905b81548152906001019060200180831161145057829003601f168201915b505050505081526020016003820160009054906101000a90046001600160a01b03166001600160a01b03166001600160a01b03168152602001600482015481526020016005820180548060200260200160405190810160405280929190818152602001828054801561150857602002820191906000526020600020905b81546001600160a01b031681526001909101906020018083116114ea575b50505050508152505083838061151d906121a1565b94508151811061152f5761152f6121ba565b60200260200101819052505b80611545816121a1565b9150506112fc565b5090949350505050565b60008451116115a05760405162461bcd60e51b81526020600482015260156024820152745469746c652063616e6e6f7420626520656d70747960581b604482015260640161017a565b60008351116115f15760405162461bcd60e51b815260206004820152601b60248201527f4465736372697074696f6e2063616e6e6f7420626520656d7074790000000000604482015260640161017a565b600085511161163e5760405162461bcd60e51b8152602060048201526019602482015278496d6167652055524c2063616e6e6f7420626520656d70747960381b604482015260640161017a565b600082116116985760405162461bcd60e51b815260206004820152602160248201527f53746172742064617465206d7573742062652067726561746572207468616e206044820152600360fc1b606482015260840161017a565b8181116116b75760405162461bcd60e51b815260040161017a90611ffa565b6116c5600080546001019055565b6116cd611853565b6000548152604081018590526060810184905260208101869052610100810183905261012081018290523360e0820152611705611834565b610140820152805160009081526003602090815260409091208251815590820151829190600182019061173890826120cb565b506040820151600282019061174d90826120cb565b506060820151600382019061176290826120cb565b506080820151600482015560a0820151600582015560c082015160068201805460e08501516001600160a81b0319909116921515610100600160a81b031916929092176101006001600160a01b03909316830217905582015160078201556101208201516008820155610140820151600982015561016082015180516117f291600a840191602090910190611905565b50610180820151805161180f91600b84019160209091019061196a565b505090516000908152600260205260409020805460ff19166001179055505050505050565b6000611842426103e86121d0565b61184e906103e86121ed565b905090565b604051806101a0016040528060008152602001606081526020016060815260200160608152602001600081526020016000815260200160001515815260200160006001600160a01b0316815260200160008152602001600081526020016000815260200160608152602001606081525090565b6040518060c0016040528060008152602001606081526020016060815260200160006001600160a01b0316815260200160008152602001606081525090565b82805482825590600052602060002090810192821561195a579160200282015b8281111561195a57825182546001600160a01b0319166001600160a01b03909116178255602090920191600190910190611925565b506119669291506119bc565b5090565b8280548282559060005260206000209081019282156119b0579160200282015b828111156119b057825182906119a090826120cb565b509160200191906001019061198a565b506119669291506119d1565b5b8082111561196657600081556001016119bd565b808211156119665760006119e582826119ee565b506001016119d1565b5080546119fa90612042565b6000825580601f10611a0a575050565b601f016020900490600052602060002090810190611a2891906119bc565b50565b634e487b7160e01b600052604160045260246000fd5b600082601f830112611a5257600080fd5b813567ffffffffffffffff80821115611a6d57611a6d611a2b565b604051601f8301601f19908116603f01168101908282118183101715611a9557611a95611a2b565b81604052838152866020858801011115611aae57600080fd5b836020870160208301376000602085830101528094505050505092915050565b60008060008060008060c08789031215611ae757600080fd5b86359550602087013567ffffffffffffffff80821115611b0657600080fd5b611b128a838b01611a41565b96506040890135915080821115611b2857600080fd5b611b348a838b01611a41565b95506060890135915080821115611b4a57600080fd5b50611b5789828a01611a41565b9350506080870135915060a087013590509295509295509295565b6000815180845260005b81811015611b9857602081850181015186830182015201611b7c565b506000602082860101526020601f19601f83011685010191505092915050565b600081518084526020808501945080840160005b83811015611bf15781516001600160a01b031687529582019590820190600101611bcc565b509495945050505050565b600081518084526020808501808196508360051b8101915082860160005b85811015611c44578284038952611c32848351611b72565b98850198935090840190600101611c1a565b5091979650505050505050565b60006101a0825184526020830151816020860152611c7182860182611b72565b91505060408301518482036040860152611c8b8282611b72565b91505060608301518482036060860152611ca58282611b72565b9150506080830151608085015260a083015160a085015260c0830151611ccf60c086018215159052565b5060e0830151611cea60e08601826001600160a01b03169052565b506101008381015190850152610120808401519085015261014080840151908501526101608084015185830382870152611d248382611bb8565b925050506101808084015185830382870152611d408382611bfc565b9695505050505050565b6000602080830181845280855180835260408601915060408160051b870101925083870160005b82811015611d9f57603f19888603018452611d8d858351611c51565b94509285019290850190600101611d71565b5092979650505050505050565b600060208284031215611dbe57600080fd5b5035919050565b602081526000611dd86020830184611c51565b9392505050565b600080600060608486031215611df457600080fd5b83359250602084013567ffffffffffffffff80821115611e1357600080fd5b611e1f87838801611a41565b93506040860135915080821115611e3557600080fd5b50611e4286828701611a41565b9150509250925092565b60008060408385031215611e5f57600080fd5b50508035926020909101359150565b60006020808301818452808551808352604092508286019150828160051b87010184880160005b83811015611f2a57603f19898403018552815160c08151855288820151818a870152611ec382870182611b72565b9150508782015185820389870152611edb8282611b72565b6060848101516001600160a01b0316908801526080808501519088015260a093840151878203948801949094529150611f1690508183611bb8565b968901969450505090860190600101611e95565b509098975050505050505050565b600080600080600060a08688031215611f5057600080fd5b853567ffffffffffffffff80821115611f6857600080fd5b611f7489838a01611a41565b96506020880135915080821115611f8a57600080fd5b611f9689838a01611a41565b95506040880135915080821115611fac57600080fd5b50611fb988828901611a41565b9598949750949560608101359550608001359392505050565b6020808252600e908201526d141bdb1b081b9bdd08199bdd5b9960921b604082015260600190565b60208082526028908201527f456e642064617465206d7573742062652067726561746572207468616e207374604082015267617274206461746560c01b606082015260800190565b600181811c9082168061205657607f821691505b60208210810361207657634e487b7160e01b600052602260045260246000fd5b50919050565b601f8211156120c657600081815260208120601f850160051c810160208610156120a35750805b601f850160051c820191505b818110156120c2578281556001016120af565b5050505b505050565b815167ffffffffffffffff8111156120e5576120e5611a2b565b6120f9816120f38454612042565b8461207c565b602080601f83116001811461212e57600084156121165750858301515b600019600386901b1c1916600185901b1785556120c2565b600085815260208120601f198616915b8281101561215d5788860151825594840194600190910190840161213e565b508582101561217b5787850151600019600388901b60f8161c191681555b5050505050600190811b01905550565b634e487b7160e01b600052601160045260246000fd5b6000600182016121b3576121b361218b565b5060010190565b634e487b7160e01b600052603260045260246000fd5b80820281158282048414176121e7576121e761218b565b92915050565b808201808211156121e7576121e761218b56fea2646970667358221220b74ed1b84a50e8f77ce837165a4c6e64353c97ded4555d82c89a03b686f82d4c64736f6c63430008110033",
  "linkReferences": {},
  "deployedLinkReferences": {}
}